S0150000414B5F4D50555F746573745F312E7372656383
S11300000C9434000C9449000C9449000C9449005D
S11300100C9449000C9449000C9449000C94490038
S11300200C9449000C9449000C9449000C94490028
S11300300C9449000C9449000C9449000C94490018
S11300400C9449000C9449000C9449000C94490008
S11300500C9449000C9449000C9449000C944900F8
S11300600C9449000C94490011241FBECFEFD8E032
S1130070DEBFCDBF11E0A0E0B1E0E6EDFAE002C0E2
S113008005900D92A635B107D9F70E9421040C946E
S113009069050C940000CF93DF931F92CDB7DEB7B0
S11300A0198221E030E0AE014F5F5F4F65E780EDDC
S11300B00E94D80381E09981983609F080E00F907E
S11300C0DF91CF9108950F931F93CF93DF9300D0C7
S11300D000D000D0CDB7DEB78C0126E030E0AE0111
S11300E04F5F5F4F63E480ED0E94D803898190E005
S11300F0982F88272A81822BF801918380832B8172
S113010030E0322F22278C81282B338322832D81C8
S113011030E0322F22278E81282B358324832696A4
S11301200FB6F894DEBF0FBECDBFDF91CF911F9104
S11301300F910895CF93DF9300D0CDB7DEB7882316
S1130140C1F0813061F521E030E0AE014F5F5F4FD7
S11301506BE680ED0E94D803898180648A8321E064
S113016030E0AE014E5F5F4F6BE680ED0E94A60368
S11301702BC021E030E0AE014F5F5F4F6BE680EDB6
S11301800E94D80389818F7B8A8321E030E0AE010D
S11301904E5F5F4F6BE680ED0E94A60315C021E021
S11301A030E0AE014F5F5F4F6BE680ED0E94D803F5
S11301B0898180648A8321E030E0AE014E5F5F4F25
S11301C06BE680ED0E94A6030F900F90DF91CF9114
S11301D00895CF93DF931F92CDB7DEB7823049F0F5
S11301E0833051F0813011F0198208C088E089838E
S11301F005C080E1898302C088E1898321E030E081
S1130200AE014F5F5F4F6BE180ED0E94A6030F903C
S1130210DF91CF910895CF93DF9300D0CDB7DEB7B0
S11302208130E9F030F0823089F1833009F445C03F
S11302305AC021E030E0AE014F5F5F4F6CE180EDCA
S11302400E94D8038981877E8A8321E030E0AE0151
S11302504E5F5F4F6CE180ED0E94A60359C021E020
S113026030E0AE014F5F5F4F6CE180ED0E94D80338
S11302708981877E88608A8321E030E0AE014E5F09
S11302805F4F6CE180ED0E94A60342C021E030E0A4
S1130290AE014F5F5F4F6CE180ED0E94D80389810E
S11302A0877E80618A8321E030E0AE014E5F5F4F3C
S11302B06CE180ED0E94A6032BC021E030E0AE018A
S11302C04F5F5F4F6CE180ED0E94D80389818861A4
S11302D08A8321E030E0AE014E5F5F4F6CE180ED38
S11302E00E94A60315C021E030E0AE014F5F5F4FCE
S11302F06CE180ED0E94D8038981877E8A8321E0A6
S113030030E0AE014E5F5F4F6CE180ED0E94A603CA
S11303100F900F90DF91CF910895CF93DF9300D08A
S1130320CDB7DEB78130E9F030F0823089F1833027
S113033009F445C05BC021E030E0AE014F5F5F4F80
S11303406BE680ED0E94D8038981887F8A8321E04F
S113035030E0AE014E5F5F4F6BE680ED0E94A60376
S11303605BC021E030E0AE014F5F5F4F6BE680ED94
S11303700E94D8038981887F81608A8321E030E0EC
S1130380AE014E5F5F4F6BE680ED0E94A60344C052
S113039021E030E0AE014F5F5F4F6BE680ED0E94DD
S11303A0D8038981887F82608A8321E030E0AE01AE
S11303B04E5F5F4F6BE680ED0E94A6032DC021E0E7
S11303C030E0AE014F5F5F4F6BE680ED0E94D803D3
S11303D08981887F83608A8321E030E0AE014E5FAB
S11303E05F4F6BE680ED0E94A60316C021E030E06B
S11303F0AE014F5F5F4F6BE680ED0E94D8038981A9
S1130400887F81608A8321E030E0AE014E5F5F4FD8
S11304106BE680ED0E94A6030F900F90DF91CF91C1
S113042008950E94550381E00E948D0182E00E949C
S1130430E90080E00E940B0180E00E949A00089588
S1130440CF92DF92EF92FF920F931F93CF93DF939C
S113045000D000D000D0CDB7DEB7FC01AE014F5FB5
S11304605F4F86E0DA011D928A95E9F7C080D1805A
S1130470E280F380F094E094D094C094C11CD11C29
S1130480E11CF11CC082D182E282F38204811581D5
S11304902681378130952095109501951F4F2F4F58
S11304A03F4F048315832683378380859185A285F6
S11304B0B385B095A095909581959F4FAF4FBF4F51
S11304C080879187A287B387D982CA821B830C83D2
S11304D09D838E8326E030E063E180ED0E94A603D5
S11304E026960FB6F894DEBF0FBECDBFDF91CF9135
S11304F01F910F91FF90EF90DF90CF900895EF92AE
S1130500FF920F931F93CF93DF93CDB7DEB7C254FF
S1130510D1090FB6F894DEBF0FBECDBF1F82188677
S113052019861A861B861C861D861E861F86188AB7
S1130530198A1A8ACE0107960E94200282E00E943C
S1130540E900E12C6894FF24F2F88E010D5E1F4F40
S1130550CE0101960E9463009E012F5F3F4FFE0172
S11305603796D9018D919D919D01092E000CAA0BFE
S1130570BB0B4081518162817381840F951FA61F3B
S1130580B71F81939193A193B193E017F10749F7B2
S1130590B1E0EB1AF108E1F68F819885A985BA8557
S11305A0BB2324F481509C4FAF4FBF4F072E7AE0FA
S11305B0B595A795979587957A95D1F7702D8F83E3
S11305C09887A987BA878B859C85AD85BE85BB2313
S11305D024F481509C4FAF4FBF4F072E7AE0B5955E
S11305E0A795979587957A95D1F7702D8B879C87DA
S11305F0AD87BE878F859889A989BA89BB2324F4DE
S113060081509C4FAF4FBF4F072E7AE0B595A79509
S1130610979587957A95D1F7702D8F87988BA98BAD
S1130620BA8B6F81788589859A852AE0AE014D5E03
S11306305F4F0E940E056B857C858D859E852AE023
S1130640AE014D5D5F4F0E940E056F8578898989E3
S11306509A892AE0AE014D5C5F4F0E940E05CE01DF
S113066043960E94D40480E091E00E94D404CE0119
S113067083960E94D40480E091E00E94D404CE01C9
S1130680C3960E94EA04CE0107960E942002CE5B24
S1130690DF4F0FB6F894DEBF0FBECDBFDF91CF9111
S11306A01F910F91FF90EF90089588E48093B80014
S11306B00895ECEBF0E0108294EA90839081992302
S11306C0ECF79091B900987F9830A1F48093BB0027
S11306D084E88093BC00ECEBF0E080818823ECF7A5
S11306E09091B900987F983139F081E0903429F4E1
S11306F080E0089581E0089580E008958093BB0030
S113070084E88093BC00ECEBF0E080818823ECF774
S11307109091B900987F81E0983209F480E00895BF
S113072084EC8093BC00ECEBF0E080818823ECF750
S11307308091BB00089584E88093BC00ECEBF0E06A
S113074080818823ECF78091BB000895CF92DF92DB
S1130750FF920F931F93CF93DF93C62F6A018901F2
S11307600E945903F82E811115C08C2F0E947E031C
S11307700115110559F0E6010C0D1D1D89910E940A
S11307807E0381110AC0C017D107C1F784E98093A1
S1130790BC0005C0FF24F39402C0FF24F3948F2D02
S11307A0DF91CF911F910F91FF90DF90CF9008952B
S11307B0AF92BF92DF92EF92FF920F931F93CF936A
S11307C0DF93182F062F5A01E9010E945903811162
S11307D022C0802F0E947E03812F81600E945903D2
S11307E0D82E81111BC08E010150110951F0E50171
S11307F07501E00EF11E0E9490038993CE15DF056A
S1130800D1F7E501C00FD11F0E949B03888384E9BF
S11308108093BC0005C0DD24D39402C0DD24D394AE
S11308208D2DDF91CF911F910F91FF90EF90DF906D
S1130830BF90AF900895882311F02D9A08952D98B4
S11308400895CF93DF93CDB7DEB7E6970FB6F8944C
S1130850DEBF0FBECDBF259A0E94BB0490E080E8A6
S11308600FB6F89480936100909361000FBE0E94CC
S1130870110283E00E940B010E944B00882341F087
S113088082E091E00E94EA0481E00E941B0426C0F9
S113089081E00E941B048FE191E00E94EA0412E3CC
S11308A080E00E941B042FEF80E792E021508040FB
S11308B09040E1F700C0000081E00E941B042FEF8C
S11308C080E792E0215080409040E1F700C00000B2
S11308D083E491E00E94D404115011F781E391E084
S11308E00E94EA040E947F0285E491E00E94EA04E7
S11308F083E00E94E90010E001E0F12CCE010196B2
S11309000E9463004AE0BE01695F7F4F89819A813A
S11309100E9403054AE0BE01695E7F4F8B819C8182
S11309200E9403054AE0BE01695D7F4F8D819E816F
S11309300E940305CE0107960E94D40484E591E049
S11309400E94D404CE0147960E94D40484E591E029
S11309500E94D404CE0187960E94EA048FE39CE9A6
S11309600197F1F700C00000802F11118F2D182F6F
S11309700E941B04C3CF1092C50080E18093C40081
S1130980E0ECF0E080818260808388E18093C100A4
S113099086E08093C2000895E0ECF0E0908195FF3A
S11309A0FDCF8093C60008950F931F93CF93FC014E
S11309B08081882359F08F01C0E00E94CC04CF5F6E
S11309C0F801EC0FF11D80818111F7CFCF911F91B8
S11309D00F9108950F931F93CF938C01FC01808195
S11309E0882351F0C0E00E94CC04CF5FF801EC0FE3
S11309F0F11D80818111F7CF8AE00E94CC04CF9150
S1130A001F910F910895BB274A3031F4992322F4A2
S1130A10BDE2909581959F4F0C944005BB272A30E9
S1130A2051F4992342F4BDE29095809570956195B7
S1130A307F4F8F4F9F4F0C941E05BB27FA01A62FA3
S1130A406217710581059105330B30FB66F0AA2707
S1130A50660F771F881F991FAA1FA21710F0A21BE9
S1130A6063953850A9F7A05DAA3308F0A95DA19356
S1130A7036F7B111B1931082CA010C945905BB2702
S1130A80FB015527AA27880F991FAA1FA41710F046
S1130A90A41B83955051B9F7A05DAA3308F0A95D52
S1130AA0A193009779F7B111B1931192CB010C94F2
S1130AB05905DC01FC01672F71917723E1F7329727
S1130AC004C07C916D9370836291AE17BF07C8F325
S1090AD00895F894FFCF25
S1130AD65F003D3D3D20494D5520776F726B696E31
S1130AE6672070726F7065726C79203D3D3D003DE4
S1130AF63D3D20494D55204552524F52203D3D3DE6
S1130B060043616C6962726174696E672047797229
S1130B166F2E2E2E0043616C6962726174696F6E6A
S1090B26204F4B002000EB
S9030000FC
